:0400000080312928FA
:100008007E14803120007F08FB008B1A0B1D1028FE
:1000180083312023803124280B1F24282100911D9F
:100028001C282000911D1C288331C82380312428D6
:100038002100901D24282000901D242880313C2078
:100048007B082000FF007E10090080312B28F0017A
:10005800F101F201F301F401F501203084000030D0
:10006800850023308331B8237E1020008231CD2AC9
:10007800200090112400951F61299513F10120009B
:10008800B50108002000A91808002808F70077081B
:10009800B5002808860087010108F7007708B60030
:1000A800280886008701413FF0000330F7007708F1
:1000B800A8072808433A031D65284030F700770849
:1000C800A8002910280827060319A91424001614C3
:1000D8000230F7007708F100080024009614023077
:1000E800F7007708F10008002400161F8428013063
:1000F800F70077082000AB0704308331C4230800D9
:100108007508F8007408F700F836F70C770824002B
:100118009100741C94280B30F7007708F100080050
:100128000330F7007708F10008002400161FA528FF
:100138000130F70077082000AB0704308331C4236F
:10014800080096147508F8007408F7007808F70096
:10015800F80106307705F90000307805FA00F0302C
:100168007904F40000307A04F50074142000B20118
:10017800B20A0230F7007708F100080020003203C5
:100188000319D728700886008701403FF400413FD3
:10019800F500700886008701433FB40070088600A8
:1001A8008701423FB300740824009100741CE128C1
:1001B8000530F7007708F10008000330F7007708EA
:1001C800F10008002400161FF4280130F700770812
:1001D8002000AB072400161305308331C423080020
:1001E80001302000B302330A031D0D290430F70043
:1001F8007708F0070130B602031D06290030833165
:10020800C4230800240096140230F7007708F10090
:1002180008002000340886008701010824009100A6
:100228000130F70077082000B40708002400161FE3
:1002380028290130F70077082000AB070430833104
:10024800C42324001613080096150830F700770811
:10025800F10008000830F7007708F100240096152F
:10026800080024001108F7002000340886008701E0
:10027800770881000130F7007708B4070130B3022E
:1002880003194D29240096120630F7007708F1006B
:1002980051292400961683318C2324001616080051
:1002A80000308331C42308000130F70077082000AC
:1002B800AB0706308331C4230800710884000C3072
:1002C800040203185829833104355F3E8200080070
:1002D8002000C60022000E17C8300032890B712991
:1002E800240016141618762920009011463524008B
:1002F80091002000901D7D2990112400161F892946
:10030800161516198529FF30080020004308240017
:1003180091002000901D8D2990112400161F992905
:10032800161516199529FF300800961496189A295B
:10033800200090110314460D240091002000901D08
:10034800A22990112400161FAE2916151619AA29DC
:10035800FF3008009615141CAF2911082000C400AE
:100368004408C500240096161616161AB92916153B
:100378001619BC292000450808002000C9004408B7
:10038800C6004608C800CA01CB0124001614161876
:10039800CB29200090114935240091002000901DA0
:1003A800D229901100302400161B01302000CA0009
:1003B8004A08031D0D2ACB0144084B020318112AD1
:1003C80024009615141CE62911082000C6004B08C5
:1003D8004307C7004708860087014608810044088C
:1003E800FF3EC600FF3003180030C7004B08460622
:1003F8004704031D022A24009616042A2400961294
:100408001616161A052A01302000C6004608CB0722
:10041800E029FF30C6004608C80024001615161D3E
:100428000800132A2000C800C701C901CA01240016
:10043800161416181D2A2000901148352400910022
:100448002000901D242A901100302400161B013032
:100458002000C9004908031D482ACA0144084A0265
:1004680003184C2A4A084307C60046088600870135
:100478000108240091002000901D3F2A90110130AE
:10048800C6004608CA07322AFF30C6004608C70019
:1004980045080319080024001615161D0800512ADE
:1004A8002000D300D4015308D2005208B7005308E3
:1004B800031D6E2A0030C6000F30C5004230C4004C
:1004C8004030C300C701C70AC80100308331CB23BD
:1004D8008231792A0030C6000130C5008630C40058
:1004E800A030C3008331412382312000D20052085A
:1004F800D4000030823191228231E53A0319892AE9
:10050800FF302000D2005208D40002302000D20070
:100518005208F300F201540808002000D000310806
:10052800CF003008CE00D1013708031DB32A500888
:100538008038CC004C08CE00CF014E30CC004C089F
:10054800C3000230CD004D08C40001308331CC23F4
:10055800823120004F08CC004C08D100CA2A503004
:10056800CC004C08C300C401C40AC5011D30823147
:100578001622823151302000CC004C08C300C4013F
:10058800C40AC501C50A1D308131C12120005108A6
:1005980008002000D601D701D801D901DA01DB0112
:1005A800DC01DD01DE01DF01E001E101E40183316D
:1005B800A823823101308231542282312000D500B3
:1005C8005508E2002000C3011D3081316C218231C1
:1005D8002000D5005508E30007302000D5007D3005
:1005E800890BF42AD50BF42AE62A22008C018D0106
:1005F8008E01373021008C00F0308D009F308E0046
:10060800CF3023008E00A0308D0017308C002400DE
:100618008D018C018E012100951725008C018D011B
:100628008E010E303C00A0000C30A10010303D00BF
:100638009E0011309C0008000B11200067089500EF
:100648000130AC070030AD3D00302D02FA300319FF
:100658002C02031C362B83319D2383312000AC01EF
:10066800AD01031022008E1E0314031C3E2B220032
:100678008E16080022008E1208002000CD010030DE
:10068800CA003D30C9000930C8000030C700CB019E
:10069800CC01240094012830950097010330920082
:1006A8002000901191112100901591152000CD0185
:1006B800CD0A4D08080080314628803171288031E4
:1006C800C2288031E6288131542981311A298131A3
:1006D8002E29813154298131352981315829803198
:1006E80078288031992821001508C03912389500DA
:1006F8000630200095000630C5004508E7000B11BC
:100708008B16CD30C3000330C4008331BE230800EC
:100718000430F6007608F00701302000B602031D09
:100728009A2B0430F6007608F1000800F101F10A6E
:1007380008002000650866040319080066088A0096
:1007480065080A00833108008231F9228331833138
:10075800B12383318331772308006A30210099005F
:100768009801220096010800640080010131890B7C
:10077800B92B003420004408E6004308E5000800CF
:1007880024001615F1010800200091110800080046
:04079800080008004D
:020000040001F9
:06000E00FC3FFF3F9F3F95
:00000001FF
