:0400000080312828FB
:100008007E14803120007F08CA008B1A0B1D10282F
:100018008231F922803123280B1F23282100911DCA
:100028001C282000911D1C2883319A238031232805
:100038002100901D23282000901D232890112000C6
:100048004A08FF007E10090080312A2820308400E9
:1000580000308500263083318E238031AE30840015
:1000680000308500073083318E237E1020008331D5
:100078003A2B2000D1004C08CE004E08D000D20107
:10008800D3012400961496184728200090110314D1
:10009800510D240091002000901D4F289011003030
:1000A8002400161B01302000D2005208031D8A28A4
:1000B800D3014C08530203188E2824009615141CEB
:1000C800632811082000CE0053084B07CF004F08C3
:1000D800860087014E0881004C08FF3ECE00FF30A5
:1000E80003180030CF0053084E064F04031D7F2825
:1000F800240096168128240096121616161A8228AD
:1001080001302000CE004E08D3075D28FF30CE0016
:100118004E08D00024001615161D0800902820004F
:10012800D300D4012808D2002708D1002608D0001F
:100138002508CF00240095132000D4014C08540250
:100148000318B92854084B07CD004D0886008701CD
:100158000108CE0054084F3E860087014E088100F2
:100168000130CD004D08D407A2285303031DBE2833
:1001780022000E132000D4014C0854020318DD2875
:1001880054084F3E86008701010824009100141C82
:10019800CB2811082000CD0054084B07CE004E088C
:1001A800860087014D0881000130CD004D08D40735
:1001B800C0285303031D080022000E170800F6008C
:1001C8007108F3007308F500F701F801240096148C
:1001D8009618EC28200090110314760D2400910045
:1001E8002000901DF428901100302400161B0130C7
:1001F800F7007708031D2929F80171087802031808
:100208002D299615141C06291108F3007808700783
:10021800F400740886008701730881007108FF3EA6
:10022800F300FF3003180030F400780873067404F4
:10023800031D20299616212996121616161A222908
:100248000130F3007308F8070129FF30F300730841
:10025800F5001615161D08002E29F800F9012000D2
:100268002808F7002708F6002608F5002508F400F6
:1002780024009513F90171087902031856297908A1
:100288007007F2007208860087010108F3007908F8
:10029800743E86008701730881000130F2007208FD
:1002A800F9073F297803031D5B2922000E13F90182
:1002B80071087902031878297908743E8600870145
:1002C800010824009100141C67291108F20079081C
:1002D8007007F300730886008701720881000130F7
:1002E800F2007208F9075C297803031D0800220050
:1002F8000E1708002000D000CF01D101D201240040
:1003080016141618852920009011503524009100E4
:100318002000901D8C29901100302400161B0130FC
:100328002000D1005108031DB029D2014C08520207
:100338000318B42952084B07CE004E0886008701DF
:100348000108240091002000901DA7299011013078
:10035800CE004E08D2079A29FF30CE004E08CF00B3
:100368004D080319080024001615161D0800B929A0
:100378002000DC00DD015C08DB005B08B1005C08E4
:10038800031DD6290030CE000F30CD004230CC00FE
:100398004030CB00CF01CF0AD00100308231D322C8
:1003A8008131E1290030CE000130CD008630CC000B
:1003B800A030CB0083311A2381312000DB005B0899
:1003C800DD0000308131F9218131E53A0319F12945
:1003D800FF302000DB005B08DD0002302000DB007E
:1003E8005B08B000AF015D0808002000D7002C08AA
:1003F800D9002B08D800DA013108031D1B2A570839
:100408008038D5005508D800D9015830D50055088E
:10041800CB000230D6005608CC0001308031932042
:10042800813120005908D5005508DA00322A5730A2
:10043800D5005508CB00CC01CC0ACD011D30813147
:100448007E2181315A302000D5005508CB00CC01DF
:10045800CC0ACD01CD0A1D3080313D2020005A083C
:100468000800F500F401F601F70124001614161827
:100478003B2A200090117535240091002000901D22
:10048800422A901100302400161B0130F60076082D
:10049800031D652AF701710877020318692A77088E
:1004A8007007F30073088600870101082400910093
:1004B8002000901D5C2A90110130F3007308F707A3
:1004C8004F2AFF30F3007308F4007208031908007C
:1004D80024001615161D08006E2A2000C8002C08D6
:1004E800C7002B08C600C9013108031D932A480814
:1004F8008038FA007A08C600C7014630FA007A0840
:10050800F0000230FB007B08F1000130813131211D
:10051800823120004708FA007A08C900A92A483021
:10052800FA007A08F000F101F10AF2011D30823177
:10053800352282314930FA007A08F000F101F10AD7
:10054800F201F20A1D308031E3202000490808003A
:1005580022008C018D018E01373021008C00F03093
:100568008D009F308E00CF3023008E00A0308D008C
:1005780017308C0024008D018C018E012100951705
:1005880025008C018D018E010E303C00A0000C303E
:10059800A10010303D009E0011309C000800200092
:1005A800D7010230D4006230D3005A30D200003074
:1005B800D100D501D60122000E1724009401200095
:1005C800500C2400031C1413031814172030950032
:1005D80020004F0C2400031C151203181516920155
:1005E8002000D701D70A570808000B11200061081E
:1005F80095000130AD070030AE3D00302E020530C9
:1006080003192D02031C0F2B83316C238231200028
:10061800AD01AE01031022008E1E0314031C172B1C
:1006280022008E16080022008E1208002000D50134
:100638000030D2003D30D1000930D0000030CF006A
:10064800D301D40124009401283095009701033088
:10065800920020009011911121009015911522000F
:100668000E172000D501D50A550808002100A00161
:10067800A101A201A301A401A501A601A701A80146
:10068800A901AA01AB01AD0183317E238331013079
:100698008131BC2183312000DE005E082100AC00DE
:1006A8008B170B17562B21001508C03912389500E7
:1006B8008330200095008330CD004D08E1000B11F8
:1006C8008B169D30CB000330CC0083319423080077
:1006D8000030823171228331FC007C08FD0020004B
:1006E8005F0860040319080060088A005F080A00B0
:1006F800833108008231AC228331833187238331EF
:100708008331572308006A3021009900980122009C
:1007180096010800640080010131890B8F2B003499
:1007280020004C08E0004B08DF0008002000911171
:0407380008000800AD
:020000040001F9
:06000E00FC3FFF3F9F3F95
:00000001FF
