:0400000080312F28F4
:100008007E14803120007F08CA008B190B1C102831
:100018008331AC2380312A288B1A0B1D1728833192
:100028000B2380312A280B1F2A282100911D232801
:100038002000911D23288331B52380312A282100EF
:10004800901D2A282000901D2A28901120004A0877
:10005800FF007E10090080313128203084000030F4
:10006800850026308331A0238031AE3084000030F3
:10007800850007308331A0237E10200083314C2B6C
:100088002000D1004C08CE004E08D000D201D30188
:100098002400961496184E28200090110314510D30
:1000A800240091002000901D562890110030240053
:1000B800161B01302000D2005208031D9128D301DD
:1000C8004C0853020318952824009615141C6A2816
:1000D80011082000CE0053084B07CF004F088600B8
:1000E80087014E0881004C08FF3ECE00FF30031800
:1000F8000030CF0053084E064F04031D8628240005
:1001080096168828240096121616161A8928013081
:100118002000CE004E08D3076428FF30CE004E08DA
:10012800D00024001615161D080097282000D300BB
:10013800D4012808D2002708D1002608D0002508B5
:10014800CF00240095132000D4014C085402031852
:10015800C02854084B07CD004D08860087010108C8
:10016800CE0054084F3E860087014E0881000130BA
:10017800CD004D08D407A9285303031DC528220024
:100188000E132000D4014C0854020318E428540824
:100198004F3E86008701010824009100141CD228D4
:1001A80011082000CD0054084B07CE004E088600E9
:1001B80087014D0881000130CD004D08D407C728BC
:1001C8005303031D080022000E170800F6007108EB
:1001D800F3007308F500F701F80124009614961847
:1001E800F328200090110314760D240091002000BC
:1001F800901DFB28901100302400161B0130F700D9
:100208007708031D3029F80171087802031834298A
:100218009615141C0D291108F30078087007F400CE
:10022800740886008701730881007108FF3EF30097
:10023800FF3003180030F400780873067404031DB7
:1002480027299616282996121616161A29290130D2
:10025800F3007308F8070829FF30F3007308F50066
:100268001615161D08003529F800F9012000280880
:10027800F7002708F6002608F5002508F4002400F2
:100288009513F9017108790203185D297908700737
:10029800F2007208860087010108F3007908743EAD
:1002A80086008701730881000130F2007208F9079F
:1002B80046297803031D622922000E13F9017108EB
:1002C800790203187F297908743E8600870101089E
:1002D80024009100141C6E291108F2007908700797
:1002E800F300730886008701720881000130F2006C
:1002F8007208F90763297803031D080022000E1706
:1003080008002000D000CF01D101D201240016142A
:1003180016188C29200090115035240091002000D7
:10032800901D9329901100302400161B01302000E5
:10033800D1005108031DB729D2014C0852020318F5
:10034800BB2952084B07CE004E08860087010108DA
:10035800240091002000901DAE2990110130CE009C
:100368004E08D207A129FF30CE004E08CF004D0815
:100378000319080024001615161D0800C0292000BE
:10038800DC00DD015C08DB005B08B1005C08031DD4
:10039800DD290030CE000F30CD004230CC00403097
:1003A800CB00CF01CF0AD00100308231E522813164
:1003B800E8290030CE000130CD008630CC00A030D6
:1003C800CB0083312C2381312000DB005B08DD006A
:1003D8000030823100228131E53A0319F829FF30D3
:1003E8002000DB005B08DD0002302000DB005B083A
:1003F800B000AF015D0808002000D7002C08D90024
:100408002B08D800DA013108031D222A5708803842
:10041800D5005508D800D9015830D5005508CB006B
:100428000230D6005608CC00013080319A20823143
:1004380020005908D5005508DA00392A5730D50068
:100448005508CB00CC01CC0ACD011D308131852166
:1004580082315A302000D5005508CB00CC01CC0A97
:10046800CD01CD0A1D308031442020005A080800F3
:10047800F500F401F601F701240016141618422AB3
:10048800200090117535240091002000901D492A04
:10049800901100302400161B0130F6007608031D69
:1004A8006C2AF701710877020318702A7708700719
:1004B800F3007308860087010108240091002000DA
:1004C800901D632A90110130F3007308F707562A2C
:1004D800FF30F3007308F4007208031908002400C1
:1004E8001615161D0800752A2000C8002C08C7001C
:1004F8002B08C600C9013108031D9A2A480880380C
:10050800FA007A08C600C7014630FA007A08F000F7
:100518000230FB007B08F100013081313821823143
:1005280020004708FA007A08C900B02A4830FA00C3
:100538007A08F000F101F10AF2011D3082313C2203
:1005480082314930FA007A08F000F101F10AF2012B
:10055800F20A1D308031EA202000490808002200F4
:100568008C018D018E01073021008C0070308D00C8
:100578009F308E00CF3023008E00A0308D001730C2
:100588008C0024008D018C018E0121009517250017
:100598008C018D018E0127001311121111158B1575
:1005A8000D303C00A40012303D009F000E303C008E
:1005B800A0000C30A10010303D009E0011309C00BE
:1005C80008002000D7010230D4006230D3005A302E
:1005D800D2000030D100D501D60122000E17240028
:1005E80094012000500C2400031C14130318141742
:1005F8002030950020004F0C2400031C151203180E
:10060800151692012000D701D70A570808000B11C8
:100618002000610895000130AD070030AE3D003084
:100628002E02053003192D02031C212B83317E2352
:1006380083312000AD01AE01031022008E1E031489
:10064800031C292B22008E16080022008E12080097
:100658002000D5010030D2003D30D1000930D00053
:100668000030CF00D301D401240094012830950034
:1006780097010330920020009011911121009015EC
:10068800911522000E172000D501D50A550808003B
:100698002100A001A101A201A301A401A501A601B5
:1006A800A701A801A901AA01AB01AD0183319023DB
:1006B800833101308131C32183312000DE005E089F
:1006C8002100AC008B170B17682B21001508C039C7
:1006D800123895008330200095008330CD004D08F6
:1006E800E1000B118B16B830CB000330CC008331FE
:1006F800A62308000030823178228331FC007C0870
:10070800FD0020005F0860040319080060088A00E3
:100718005F080A00833108008231B32283318331B4
:10072800992383318331692308006A3021009900B5
:100738009801220096010800640080010131890BAC
:10074800A12B003420004C08E0004B08DF00080013
:100758002700131D08008331B22308002700131156
:0A07680008002000911108000800AD
:020000040001F9
:06000E00FC3FFF3F9F3F95
:00000001FF
