:040000008031132810
:100008007E14803120007F08F0008B1A0B1D0E280B
:100018008131F42170082000FF007E100900803132
:100028001528FC012030840000308500183082310A
:1000380032227E1020008231092A00302000BB00C5
:100048000030BA000030B9000030B80074087304FA
:100058007204710403196B28BC01BC0AF41B402804
:100068000130F135F20DF30DF40D890B352801300F
:10007800F9007908BC0732280130B835B90DBA0D36
:10008800BB0D890B412874087802031D5528730895
:100098007702031D552872087602031D552871083A
:1000A8007502031C60287108F5027208F63B730894
:1000B800F73B7408F83B38140130F436F30CF20CB3
:1000C800F10C890B61280130BC02031D40283B0854
:1000D800F4003A08F3003908F2003808F100080083
:1000E800F7007208F4007408F600F801F90124001A
:1000F800161416187D2820009011773524009100D9
:100108002000901D8428901100302400161B013017
:10011800F8007808031DB928F90172087902031854
:10012800BD289615141C96281108F4007908710743
:10013800F500750886008701740881007208FF3E83
:10014800F400FF3003180030F500790874067504D0
:10015800031DB0289616B12896121616161AB2283C
:100168000130F4007408F9079128FF30F40074088E
:10017800F6001615161D0800BE282000CB01043015
:10018800C800C430C700B430C6000030C500C9017B
:10019800CA012400940128309500970120003D08E9
:1001A800C1003E08C2003F08C3004008C400023036
:1001B800C135C20DC30DC40D890BDC284408F400F9
:1001C8004308F3004208F2004108F1004808F8002B
:1001D8004708F7004608F6004508F5008031212059
:1001E8007108FF3E2000C900FF30723DCA0049086F
:1001F80024009200033092002000901191112100F8
:10020800901591152000CB01CB0A4B08080020005F
:10021800CD00CE014D08CC004C08B7004D08031D99
:1002280025290030F4000F30F3004230F20040304E
:10023800F100F501F50AF601003082313E228131E4
:1002480030290030C0000130BF008630BE00A03029
:10025800BD008031C12081312000CC004C08CE0087
:100268000030813184218131E53A03194029FF307A
:100278002000CC004C08CE0002302000CC004C08F6
:10028800FC00B6014E080800F600F501F701F80178
:100298002400161416184E292000901176352400D3
:1002A80091002000901D5529901100302400161B44
:1002B8000130F7007708031D7829F80172087802E1
:1002C80003187C2978087107F400740886008701F0
:1002D8000108240091002000901D6F299011013021
:1002E800F4007408F8076229FF30F4007408F50078
:1002F80073080319080024001615161D0800812923
:100308002000BA003308B9003208B800BB0137082A
:10031800031DA6293A088038FA007A08B800B901FE
:100328003830FA007A08F1000230FB007B08F2004E
:10033800013082313F22813120003908FA007A08E1
:10034800BB00BC293A30FA007A08F100F201F20A3F
:10035800F3011D308131482181313B30FA007A08A0
:10036800F100F201F20AF301F30A1D308031742022
:1003780020003B08080022008C018D018E013730D7
:1003880021008C00F0308D009F308E00CF3023008C
:100398008E00A0308D0013308C0024008D018C015C
:1003A8008E012100951725008C018D018E010230E8
:1003B8003C009100080021001508C039313895002B
:1003C800CE3020009500CE30F3007308D2000B1118
:1003D8008B164030F1000230F200823138220800DA
:1003E8000B112000520895000130B4070030B53DCC
:1003F80000303502FA3003193402031C0800823138
:1004080017222000B401B50108008231222282316E
:10041800013081310B2182312000CF004F08D300F9
:100428008B170B17162A20005008510403190800CF
:1004380051088A0050080A00823108008131BF2122
:10044800823182312B2282318131DF2108007230E2
:10045800210099009801220096010800640080019B
:100468000131890B332A003472082000D100710849
:0A047800D00008000800080008008A
:020000040001F9
:06000E00FC3FFF3F9F3F95
:00000001FF
